:03000000020800F3
:0C080000787FE4F6D8FD758134020847CB
:1008D600141D4F69206573746F75206E61207365F2
:0E08E6007269616C20000231000002330000D4
:1008F500E4F587759842758920758DFDD28ED2AF46
:05090500D2ACD29C22DF
:0300230002088C44
:10088C00C0E0C0D075D000C000309913C299741D5F
:10089C002532F8E6700975990AF531F532C29930AE
:1008AC009821C298859908E508642A60100534E5FA
:1008BC003470020533142409F8A608800675330039
:0A08CC00753400D000D0D0D0E03227
:05090A001208F580FE5B
:10080C0002090AE493A3F8E493A34003F68001F2EF
:10081C0008DFF48029E493A3F85407240CC8C333ED
:10082C00C4540F4420C8834004F456800146F6DFBC
:10083C00E4800B01020408102040809008D6E47E6E
:10084C00019360BCA3FF543F30E509541FFEE493B1
:10085C00A360010ECF54C025E060A840B8E493A378
:10086C00FAE493A3F8E493A3C8C582C8CAC583CAA3
:10087C00F0A3C8C582C8CAC583CADFE9DEE780BE5B
:0108F4000003
:00000001FF
